:100000000219AD008F828E83E0540100000070F869
:100010002278FFE4F6D8FD021A3BEC4D6011E84966
:100020007017ED33EC3304600DE4FCFFFEFD22E9B4
:1000300033E8330470F80202E31202AE5804600998
:10004000E4CC248150062850090202ED2840030226
:1000500002EAC0E0EB4A7044B98006D0E0FB02023D
:10006000D9EF4E701CBD8008EBFFEAFEE9FD80EB86
:10007000E98DF0A4FEE5F0020103E9CDF9EAFEEB1B
:10008000FFEF89F0A4FCE5F0CE89F0A42EFFE43563
:10009000F0CD89F0A42DFEE435F08067EF4E7005B9
:1000A000BD80D780C3EF8BF0A4ACF0EE8BF0A42C16
:1000B000FCE435F0F8EF8AF0A42CE5F038FCE433EA
:1000C000CB8DF0A42CFCE5F03BF8EE8AF0A42CFCE0
:1000D000E5F038F8E433CF89F0A42CFCE5F038CF14
:1000E0003400CE89F0A42FFFE5F03EFEE433C98D45
:1000F000F0A42EFEE5F039CD8AF0A42FFFE5F03E06
:10010000FEE43DFD33D0E0FB50070BBB000F0202C5
:10011000EDEC2CFCEF33FFEE33FEED33FD0202C5B8
:100120000202EDEC5D046005E8590470030202E38D
:100130001202AE580460F6EC4860F2EC7004FDFE6A
:10014000FF22C860DB2481C85009C39860025006B2
:100150000202EA9850CAF582E9294B4A7005AB823F
:100160000202D975F0007C1A7880C3EF9BEE9AEDFD
:1001700099400DC3EF9BFFEE9AFEED99FDE842F02A
:10018000DC23ACF0D0E0FFD0E0FED0E0FDAB82207D
:10019000E7101BEB60BAEC2CFCEF33FFEE33FEED07
:1001A00033FD0202C5E803F830E705C0F075F00042
:1001B000EF2FFFEE33FEED33FD40B830E7C280AAEB
:1001C00074F8CC6480CCC86480C8F58204604FC3E6
:1001D000EB9FF5F0EA9E42F0E99D42F0E89C45F085
:1001E000603C501DE5825FFFE582D313CB5BCBF40F
:1001F0002B5582FB50280ABA002409B90020088038
:100200001DE5825BFBE582D313CF5FCFF4C3132FD1
:100210005582FF50090EBE00050DBD00010CC3EB59
:100220009FF5F0EA9E42F0E99D42F0E89C45F060BF
:1002300007CC4820E701B3EC2275F020800E75F062
:1002400010800575F0087D007E007F003392D53068
:10025000D503120547EC334010EF33FFEE33FEEDCC
:1002600033FDEC33FCD5F0ED22E5F0247EA2D5136E
:10027000CC92E7CDCEFF22EDD2E7CD33EC3392D551
:1002800024814006E4FFFEFDFC22FCE4CFCECDCC71
:1002900024E0501174FF80EDC3CC13CCCD13CDCE30
:1002A00013CECF13CF0470F030D5DE020547E9D26C
:1002B000E7C933E833F892D5EDD2E7CD33EC33FC20
:1002C0005002B2D522EC30E7100FBF000C0EBE007A
:1002D000080DBD00040BEB6014A2D5EB13FCED92EE
:1002E000E7FD2274FFFCFDFEFF22E480F8A2D57436
:1002F000FF13FC7D80E480EFBB010689828A83E0E6
:10030000225002E722BBFE02E32289828A83E49321
:1003100022BB010689828A83F0225002F722BBFEAB
:1003200001F322EF8DF0A4A8F0CF8CF0A428CE8D9D
:10033000F0A42EFE22BC000BBE0029EF8DF084FF3E
:10034000ADF022E4CCF875F008EF2FFFEE33FEECB1
:1003500033FCEE9DEC984005FCEE9DFE0FD5F0E9D8
:10036000E4CEFD22EDF8F5F0EE8420D21CFEADF0D7
:1003700075F008EF2FFFED33FD4007985006D5F0DC
:10038000F222C398FD0FD5F0EA22C2D5EC30E7097E
:10039000B2D5E4C39DFDE49CFCEE30E715B2D5E494
:1003A000C39FFFE49EFE120335C3E49DFDE49CFC65
:1003B000800312033530D507C3E49FFFE49EFE227D
:1003C000C5F0F8A3E028F0C5F0F8E58215827002C8
:1003D0001583E038F022BB010A89828A83F0E5F0B8
:1003E000A3F0225006F709A7F01922BBFE06F3E599
:1003F000F009F31922EF2BFFEE3AFEED39FDEC3850
:10040000FC22C3EF9BFFEE9AFEED99FDEC98FC22D7
:10041000E88FF0A4CC8BF0A42CFCE98EF0A42CFC8B
:100420008AF0EDA42CFCEA8EF0A4CDA8F08BF0A409
:100430002DCC3825F0FDE98FF0A42CCD35F0FCEB68
:100440008EF0A4FEA9F0EB8FF0A4CFC5F02ECD392D
:10045000FEE43CFCEAA42DCE35F0FDE43CFC227524
:10046000F008758200EF2FFFEE33FECD33CDCC3395
:10047000CCC58233C5829BED9AEC99E58298400CFD
:10048000F582EE9BFEED9AFDEC99FC0FD5F0D6E4DB
:10049000CEFBE4CDFAE4CCF9A88222B800C1B900C1
:1004A00059BA002DEC8BF084CFCECDFCE5F0CBF922
:1004B0007818EF2FFFEE33FEED33FDEC33FCEB331A
:1004C000FB10D703994004EB99FB0FD8E5E4F9FA48
:1004D000227818EF2FFFEE33FEED33FDEC33FCC92D
:1004E00033C910D7059BE99A4007EC9BFCE99AF9C0
:1004F0000FD8E0E4C9FAE4CCFB2275F010EF2FFF2F
:10050000EE33FEED33FDCC33CCC833C810D7079B98
:10051000EC9AE899400AED9BFDEC9AFCE899F80FFB
:10052000D5F0DAE4CDFBE4CCFAE4C8F922EF5BFFC6
:10053000EE5AFEED59FDEC58FC22EF4BFFEE4AFE61
:10054000ED49FDEC48FC22C3E49FFFE49EFEE49DE0
:10055000FDE49CFC22EB9FF5F0EA9E42F0E99D420F
:10056000F0EC6480C864809845F022EB9FF5F0EAD7
:100570009E42F0E99D42F0E89C45F022E8600FEFD2
:10058000C333FFEE33FEED33FDEC33FCD8F122BB79
:10059000010789828A830205AF5005E9F802081F26
:1005A000BBFE05E9F802082B89828A83020837E03E
:1005B000FCA3E0FDA3E0FEA3E0FF22E0F8A3E0F946
:1005C000A3E0FAA3E0FB22ECF0A3EDF0A3EEF0A38E
:1005D000EFF022A42582F582E5F03583F58322E051
:1005E000FBA3E0FAA3E0F922EBF0A3EAF0A3E9F021
:1005F00022D083D082F8E4937012740193700DA31B
:10060000A393F8740193F5828883E473740293686A
:1006100060EFA3A3A380DFE5092582F582E5083515
:1006200083F583B508048582092210AF0685820907
:10063000F50822858209F508D2AF22EC8EF0A4CC11
:10064000C5F0CCCDF8EFA4CEC5F02DFDE43CFCE820
:10065000A42EC8C5F03DFDE43CFCEFA4FFE5F02866
:10066000FEE43DFDE43CFC22E709F608DFFA8046A3
:10067000E709F208DFFA803E88828C83E709F0A35D
:10068000DFFA8032E309F608DFFA806EE309F20848
:10069000DFFA806688828C83E309F0A3DFFA805A50
:1006A00089828A83E0A3F608DFFA804E89828A83F2
:1006B000E0A3F208DFFA804280D280FA80C680D4BC
:1006C000805580F28029801080A680EA809A80A8D8
:1006D00080DA80E280CA802988848C8589828A8336
:1006E000E493A30586F0A30586DFF5DEF3800B898E
:1006F000828A83E493A3F608DFF9ECFAA9F0EDFB14
:100700002288848C8589828A83E0A30586F0A305EC
:1007100086DFF6DEF480E389828A83E493A3F2081D
:10072000DFF980D688F0EF60010E4E60CD88F0EDE5
:100730002402B4040050C3F582EB2402B404005038
:10074000B923234582239006B873E709F60870FAA7
:100750008046E709F20870FA803E88828C83E709B8
:10076000F0A370FA8074E309F60870FA806CE3096C
:10077000F20870FA806488828C83E309F0A370FA2F
:10078000805889828A83E0A3F60870FA804C8982B7
:100790008A83E0A3F20870FA804080D280FA80C693
:1007A00080D4805180F28027801080A680EA809AD1
:1007B00080A880DA80E280CA802788848C8589823C
:1007C0008A83E493A30586F0A3058670F5800B89E0
:1007D000828A83E493A3F60870F9ECFAA9F0EDFBA2
:1007E0002288848C8589828A83E0A30586F0A3050C
:1007F0008670F680E589828A83E493A3F20870F913
:1008000080D888F0ED2402B4040050CEF582EB24A9
:1008100002B4040050C4232345822390079A73E650
:10082000FC08E6FD08E6FE08E6FF22E2FC08E2FD21
:1008300008E2FE08E2FF22E493FC740193FD7402D7
:1008400093FE740393FF22900013EFF090008AE46C
:10085000F0900085E0FFEF70519058967407F0908B
:100860005897E4F090589EE4F0905B07E0FFEF4467
:1008700018FFEFF0905893E4F0905B88E4F0905B01
:1008800089E4F0905880740AF0905881E4F0905810
:1008900082747AF0905883E4F090588DE4F0904E92
:1008A000017414F0904E147401F0900013E0FFEF07
:1008B00064016003020983904E007438F0904E0288
:1008C0007406F0904E037408F0904E04E4F0904EDD
:1008D00005E4F0904E067426F0904E08E4F0904E39
:1008E00009E4F0904E0AE4F09058847414F09058A3
:1008F00085740BF09058867431F0905887E4F0902E
:1009000058887412F09058897413F090588A74447F
:10091000F090588B7448F090588C7401F090588E79
:10092000E4F090588FE4F0905890740AF090589149
:100930007443F09058927452F09058947458F09018
:100940005895E4F090589A7405F090589B7402F012
:1009500090589C7401F090589DE4F07F00122B0E8B
:100960007F667E067D007C009000811205C77D07B2
:100970007F1D12219C7C2D7D457F1D1220647F1DD3
:10098000121F1E900013E0FFEF64026003020A5E74
:10099000904E007438F0904E027404F0904E037440
:1009A00006F0904E04E4F0904E05E4F0904E06748C
:1009B0003FF0904E08E4F0904E09E4F0904E0AE4C7
:1009C000F09058847450F09058857427F0905886B1
:1009D000742CF0905887E4F09058887412F0905876
:1009E000897413F090588A7455F090588B745AF0AB
:1009F00090588C7405F090588E7401F090588F7454
:100A000011F09058907419F09058917497F0905894
:100A1000927444F09058947458F0905895E4F09083
:100A2000589A7405F090589B7402F090589C740189
:100A3000F090589DE4F07F00122B0E7F007EFA7D2F
:100A4000007C009000811205C77D077F1D12219C4C
:100A50007C2D7D467F1D1220647F1D121F1E90007D
:100A600013E0FFEF64036003020B39904E0074380B
:100A7000F0904E027404F0904E037406F0904E0411
:100A8000E4F0904E05E4F0904E06743FF0904E086E
:100A9000E4F0904E09E4F0904E0AE4F0905884742B
:100AA00050F09058857427F0905886742CF0905828
:100AB00087E4F09058887412F09058897413F0907D
:100AC000588A7455F090588B745AF090588C74056D
:100AD000F090588E7401F090588F7411F0905890E7
:100AE0007419F09058917497F09058927444F09063
:100AF00058947458F0905895E4F090589A7405F012
:100B000090589B7402F090589C7401F090589DE4AA
:100B1000F07F00122B0E7F007EFA7D007C0090009B
:100B2000811205C77D077F1D12219C7C2D7D477F8B
:100B30001D1220647F1D121F1E900013E0FFEF6442
:100B4000046003020C14904E007438F0904E02744E
:100B500004F0904E037406F0904E04E4F0904E05BD
:100B6000E4F0904E06743FF0904E08E4F0904E0989
:100B7000E4F0904E0AE4F09058847450F090588558
:100B80007427F0905886742CF0905887E4F09058B1
:100B9000887412F09058897413F090588A7455F044
:100BA00090588B745AF090588C7405F090588E744D
:100BB00001F090588F7411F09058907419F090587B
:100BC000917497F09058927444F09058947458F03F
:100BD000905895E4F090589A7405F090589B7402E0
:100BE000F090589C7401F090589DE4F07F00122B17
:100BF0000E7F007EFA7D007C009000811205C77D8B
:100C0000077F1D12219C7C2D7D487F1D1220647F53
:100C10001D121F1E22122BF7122CE6122CF2122A82
:100C2000F1122323900045EEF0A3EFF07D007F0149
:100C30001225517BFF7A26790C1226A7900045E0F9
:100C4000FEA3E0FF121ACA900006E4F090500EE0F6
:100C5000FFEF54FEFFEFF0905000E0FFEF54FEFF77
:100C6000EFF0905001E0FFEF54FEFFEFF07FE87EE1
:100C7000037D007C0012240F90500EE0FFEF440132
:100C8000FFEFF07FD07E077D007C0012240F9000E4
:100C90002CE4F0900005E4F0900007E4F0A3E4F009
:100CA000900009743EF0A37480F090000BE4F0A370
:100CB000E4F090002DE0FFEF64306003020D537FFD
:100CC000E87E037D007C0012240F7D007F0012254A
:100CD000517BFF7A26790F1226A77D007F0112250E
:100CE000517BFF7A26790F1226A77D007F001225FF
:100CF0005190002DE0FF122C90121D81900002EE09
:100D0000F0A3EFF07D037C007F907E011222AB9078
:100D10000004EFF0900002E0FEA3E0FF1227D59060
:100D20000004E0FF122A6D7FE87E037D007C001244
:100D3000240F7F30121E517FD07E077D007C001271
:100D4000240F7FD07E077D007C0012240F90002CA2
:100D50007401F0121D81900002EEF0A3EFF07D030C
:100D60007C007FA97E011222AB900004EFF090007E
:100D700002E0FEA3E0FF1227D5900004E0FF122A54
:100D80006D7FE87E037D007C0012240F7D007F01D3
:100D90001225517BFF7A2679201226A790002CE09D
:100DA000FF900038EFF0900038E0FFD3EF648094BC
:100DB0008A504F900038E0FD7F0012255190003896
:100DC000E0FFEF3395E0FE742D2FF58274003EF5C1
:100DD00083E0FF122C90900038E0FFEF3395E0FEA7
:100DE000742D2FF58274003EF583E0FF121E517FB3
:100DF000E87E037D007C0012240F900038E004F0B0
:100E000080A47D367C017F0112210190000FEEF05D
:100E1000A3EFF07F407E1F121CA8EF7802CEC31311
:100E2000CE13D8F9FF7C007D0312032390000DEE52
:100E3000F0A3EFF090000DE0FCA3E0FD7F00122195
:100E400001900011EEF0A3EFF090000DE0FCA3E0A4
:100E5000FD7F0112210190000FEEF0A3EFF0900052
:100E60000DE0FCA3E0FD7F00122101900011EEF0E7
:100E7000A3EFF0121D81900002EEF0A3EFF07D00D1
:100E80007F011225517BFF7A2679201226A7900038
:100E900002E0FEA3E0FF1227D57FD07E077D007C15
:100EA0000012240F900002E0FEA3E0FFD3EF94AC09
:100EB000EE94014003020F6B900002E0FEA3E0FFFE
:100EC000C3EF94A6EE94015003020F6B90000FE065
:100ED000FEA3E0FFC3EF94A0EE940F4003020F6B5C
:100EE0007FE87E037D007C0012240F905001E0FF1C
:100EF000EF4401FFEFF07F107E277D007C0012247D
:100F00000F900000E4F0A3E4F0900000E0FEA3E006
:100F1000FFD3EF9404EE64809480503D900000E095
:100F2000FEA3E0FF74392FF58274003EF583E0FFE5
:100F3000900000E0FCA3E0FDAE05EE240BFB90006A
:100F4000167427F0A37410F07D0012291A90000087
:100F5000E475F0011203C080B07D007F01122551BD
:100F60007BFF7A26792A1226A780FE900006E004ED
:100F7000F0900006E0FFD3EF6480F8740A64809874
:100F8000501D905000E0FFEF4401FFEFF07D007F27
:100F9000011225517BFF7A2679321226A780FE7D29
:100FA000007F011225517BFF7A26793D1226A77D0D
:100FB000007F011225517BFF7A26794A1226A790DD
:100FC0000006E0FFEF3395E0FE121ACA7FE87E03C9
:100FD0007D007C0012240F020C4C22900018EFF0D0
:100FE000900018E0FFEF1205F112752312212A126A
:100FF0004B30101D3110483210733310C93410F4C7
:1010000035111F3611753711A03811CB39109E419B
:10101000114A4211F643129F440000130A90004106
:101020007409F0A374B0F090003D7404F0A374D878
:10103000F09000437410F0A374CEF090003F740859
:10104000F0A37467F00212C79000417408F0A37413
:10105000C4F090003D7404F0A37462F090004374F7
:1010600010F0A374CEF090003F7408F0A37467F002
:101070000212C79000417407F0A374EEF090003D97
:101080007403F0A374F7F09000437410F0A374CECF
:10109000F090003F7408F0A37467F00212C790004C
:1010A000417407F0A3742CF090003D7403F0A37416
:1010B00096F09000437410F0A374CEF090003F744B
:1010C00008F0A37467F00212C79000417409F0A3FE
:1010D00074B0F090003D7404F0A374D8F090004315
:1010E000740FF0A37436F090003F7407F0A3749B64
:1010F000F00212C79000417408F0A374C4F090008D
:101100003D7404F0A37462F0900043740FF0A37474
:1011100036F090003F7407F0A3749BF00212C79062
:1011200000417407F0A374EEF090003D7403F0A347
:1011300074F7F0900043740FF0A37436F090003F02
:101140007407F0A3749BF00212C79000417407F07B
:10115000A3742CF090003D7403F0A37496F09000FB
:1011600043740FF0A37436F090003F7407F0A3743B
:101170009BF00212C79000417409F0A374B0F09084
:10118000003D7404F0A374D8F0900043740DF0A3F4
:1011900074BEF090003F7406F0A374DFF00212C733
:1011A0009000417408F0A374C4F090003D7404F002
:1011B000A37462F0900043740DF0A374BEF090002D
:1011C0003F7406F0A374DFF00212C7900041740769
:1011D000F0A374EEF090003D7403F0A374F7F09068
:1011E0000043740DF0A374BEF090003F7406F0A3AA
:1011F00074DFF00212C79000417407F0A3742CF062
:1012000090003D7403F0A37496F0900043740DF0C9
:10121000A374BEF090003F7406F0A374DFF00212D6
:10122000C79000417409F0A374B0F090003D7404BD
:10123000F0A374D8F0900043740CF0A37470F09095
:10124000003F7406F0A37438F0807C90004174086D
:10125000F0A374C4F090003D7404F0A37462F090A5
:101260000043740CF0A37470F090003F7406F0A378
:101270007438F080529000417407F0A374EEF0903F
:10128000003D7403F0A374F7F0900043740CF0A3D6
:101290007470F090003F7406F0A37438F0802890CA
:1012A00000417407F0A3742CF090003D7403F0A388
:1012B0007496F0900043740CF0A37470F090003FAB
:1012C0007406F0A37438F090003DE0FEA3E0FF1236
:1012D0002B29900041E0FEA3E0FF122B4390003F3A
:1012E000E0FEA3E0FF122B77900043E0FEA3E0FFB7
:1012F000122B91122C0C122C367F647E007D007C08
:101300000012240F122CC2122CDA22900013EFF0DC
:10131000900014ECF0A3EDF0900016EAF0A3EBF0CF
:10132000900013E0FFEF1205F11339041366071361
:10133000910813BC0A000013E7900018E0FFEFD3F8
:10134000940F40117B0C7A017914122D2290001910
:10135000EFF00213EC7B0C7A017918122D22900029
:1013600019EFF00213EC900018E0FFEFD3940F4058
:10137000107B0C7A017915122D22900019EFF08064
:101380006B7B0C7A017919122D22900019EFF080F5
:101390005B900018E0FFEFD3940F40107B0C7A01B4
:1013A0007916122D22900019EFF080407B0C7A0103
:1013B000791A122D22900019EFF08030900018E079
:1013C000FFEFD3940F40107B0C7A017917122D2276
:1013D000900019EFF080157B0C7A01791B122D22F9
:1013E000900019EFF08005900019E4F0900013E0F0
:1013F000FFEF603B900013E0FFEF6401603190006D
:1014000013E0FFEF64026027900013E0FFEF640336
:10141000601D900013E0FFEF64056013900013E07F
:10142000FFEF64066009900013E0FFEFB4090A9033
:10143000001AE4F0A3E4F0801D900019E0FFEF3300
:1014400095E0FEEF7805C333CE33CED8F9FF900098
:101450001AEEF0A3EFF090001AE0FEA3E0FF900078
:1014600014E0FCA3E0FDED2FFFEC3EFE90001CEE2F
:10147000F0A3EFF0900016E0FEA3E0FF90001CE068
:10148000FCA3E0FD12063B90001E1205C77B007A0C
:10149000807900780090001E1205AF12049B900026
:1014A0001CEEF0A3EFF0900018E0FFEFC3940E5095
:1014B0003790001CE0FEA3E0FF900018E0FDC3742D
:1014C0000E9DFDEFA805088005CEC313CE13D8F9F5
:1014D000FF90001CEEF0A3EFF0900018E0FFEF0487
:1014E000FF904E0EEFF08006904E0E740FF09000BD
:1014F0001CE0FEA3E0FF904E0CEFF090001CE0FE1D
:10150000A3E0FFEEFF7E00904E0DEFF0900013E0A1
:10151000FFEFB4010F904E0CE4F0904E0DE4F0900C
:101520004E0EE4F0229048007480F0907010E4F0C9
:10153000907020E4F07B007A4679E8122D22EF4487
:1015400001FD7B007A4679E8122D2E121BC57B0027
:101550007A5279007D077C00122BC57B087A0F79BF
:1015600080C003C002C0017B007A52790890000C51
:101570001205E8D001D002D0037F077E001229C4F3
:101580007B087A0F7988C003C002C0017B007A52C1
:10159000791090000C1205E8D001D002D0037F072B
:1015A0007E001229C47B007A5279187D077C0012D4
:1015B0002BC57B007A5279207D077C00122BC57BDE
:1015C000007A5279287D077C00122BC57B007A5265
:1015D00079307D077C00122BC57B007A5279607DC3
:1015E000067C00122BC57B007A5279787D077C003F
:1015F000122BC57B017A507903122D22EF4402FD94
:101600007B017A507903122D2E7B017A50791312C7
:101610002D22EF4402FD7B017A507913122D2E907A
:1016200043A0E0FFEF4440FF9043A0EFF09043C29F
:10163000E0FFEF4410FF9043C2EFF07B087A0F7990
:1016400060C003C002C0017B007A51790290000C97
:101650001205E8D001D002D0037F087E001229C411
:101660007B087A0F7968C003C002C0017B007A5101
:10167000791290000C1205E8D001D002D0037F0847
:101680007E001229C47B087A0F7970C003C002C0A3
:10169000017B007A51792290000C1205E8D001D02C
:1016A00002D0037F087E001229C47B087A0F797864
:1016B000C003C002C0017B007A51794290000C1235
:1016C00005E8D001D002D0037F087E001229C49023
:1016D00044F47401F0904800E4F012171A904800A6
:1016E0007440F0122BDE7B007A4379A0C003C00265
:1016F000C0017B007A4379B090000C1205E8D0015C
:10170000D002D0037F0C7E001229C49043B0E0FFCA
:10171000EF54FDFF9043B0EFF0227E007F00900079
:1017200004EEF0A3EFF07B007A4079807F007E002A
:101730007D197C00122C607B007A4079847F007ECA
:10174000007D197C00122C607B007A4079887F1222
:101750007E007D187C00122C607B087A0F7990C087
:1017600003C002C0017B007A41790090000C120591
:10177000E8D001D002D0037F047E001229C4904338
:10178000007402F09040007408F09042007403F07E
:101790007B0C7A017908122D229046A1EFF07B0094
:1017A0007A4279227D087C00122C817B007A427972
:1017B000207D517C10122C81900006E4F07F197E70
:1017C000007D007C009000001205C7900004E0FE40
:1017D000A3E0FF8F828E831205AFEC4D4E4F604E1B
:1017E000900006E0FFEF64036044904225E0FFEFC5
:1017F0005401FF7E00900006E0FEEE25E0FEEE4F75
:10180000FFEF5403FF900006EFF07FE07E017D00C4
:101810007C001228009000001205AF7BFF7AFF7950
:10182000FF78FF1203F59000001205C7809D7B0032
:101830007A4079047D037C01122C81904004E4F00D
:101840009040047407F0904006E4F090400874481B
:10185000F0904004E4F09040017402F09043A2E064
:10186000FFEF4407FFEFF09043A1E0FFEF4401FFDB
:10187000EFF02290002BE4F0905120E0FFEF548035
:10188000FFEFF0905122E0FFEF54F0FF90002BEFBC
:10189000F090002BE0FFEF440FFF905122EFF0900B
:1018A0005123E0FFEF54F0FF90002BEFF090002B5E
:1018B000E0FF905123EFF0905124E0FFEF54F0FF50
:1018C00090002BEFF090002BE0FF905124EFF09070
:1018D0005120E0FFEF54DFFFEFF0905120E0FFEFE9
:1018E0004440FFEFF07F007E001229F8905120E085
:1018F000FFEF4410FFEFF07F017E001229F89051B6
:1019000021E0FF90002BEFF0905120E0FFEF54EF2B
:10191000FFEFF090002BE0FFEF5408FF90002BEF5B
:10192000F0905120E0FFEF4410FFEFF07F017E00C8
:101930001229F8905120E0FFEF54EFFFEFF09000F4
:101940002BE0FFEF709F905120E0FFEF54BFFFEFBF
:10195000F0905120E0FFEF5480FFEFF0905122E033
:10196000FFEF54F0FF90002BEFF090002BE0FF9082
:101970005122EFF0905123E0FFEF54F0FF90002B45
:10198000EFF090002BE0FFEF440FFF905123EFF0BA
:10199000905124E0FFEF54F0FF90002BEFF0900007
:1019A0002BE0FFEF440FFF905124EFF022759300DE
:1019B00078007583467582E8E04401F000904800A5
:1019C0007480F07581099076BCE4F0A3F0A3F0A3D5
:1019D000F0907010F0907019F0907020F0907600F8
:1019E0007410F0907604E4F0A3F0A3F0A3F09078E4
:1019F000007800087400F0A37408F0E8B8040274DA
:101A0000FFA3F0A37422F0A374BCF0A37476F0A338
:101A1000E4F0A3E81475F008A4F0A3B804D590701E
:101A2000107401F0907014F07E707F181200049012
:101A30007010F0EA90007BF0020011750820750923
:101A4000001215251226F5021A85020C15E493A33F
:101A5000F8E493A34003F68001F208DFF48029E460
:101A600093A3F85407240CC8C333C4540F4420C8AC
:101A7000834004F456800146F6DFE4800B01020443
:101A80000810204080902399E47E019360BCA3FF5E
:101A9000543F30E509541FFEE493A360010ECF5478
:101AA000C025E060A840B8E493A3FAE493A3F8E467
:101AB00093A3C8C582C8CAC583CAF0A3C8C582C8D3
:101AC000CAC583CADFE9DEE780BE900015EEF0A349
:101AD000EFF0900021E4F0900022E4F0900015E097
:101AE000FEA3E0FFC3EF940AEE940040459000157A
:101AF000E0FEA3E0FF7C007D0A120335AF05EF2472
:101B000030FF900021E0FE741C2EF582E43400F5D5
:101B100083EFF0900015E0FEA3E0FF7C007D0A1249
:101B20000335900015EEF0A3EFF0900021E004F0F3
:101B300080AA900015E0FEA3E0FF7C007D0A12035E
:101B400035AF05EF2430FF900021E0FE741C2EF528
:101B500082E43400F583EFF0900021E0FF90002252
:101B6000EFF0900021E0FFEF64FF603E900021E085
:101B7000FF741C2FF582E43400F583E0FF90002110
:101B8000E0FEEEFD7C00900022E0FEEEFB7A00C35A
:101B9000EB9DFDEA9CFC74172DF58274003CF583E7
:101BA000EFF0900021E014F080B8900022E0FF7484
:101BB000182FF582E43400F583E4F07B017A007994
:101BC000171226A7227F007E007D007C00900097E0
:101BD0001205C79076007410F09070107401F090A8
:101BE0007019E4F09078027401F090780374A3F017
:101BF0007B027A7879007DF07C01122C837B027A5B
:101C0000787904C003C002C0017BFF7A2D796EACE5
:101C100002AD01D001D002D003122C837B027A786E
:101C200079067D087C78122C837B027A7679047D94
:101C3000107C00122C837B027A7679067D007C0072
:101C4000122C839070297409F0907039740DF09003
:101C50007069741DF0907079741FF09070147401A5
:101C6000F0907018E0FFEF20E0F7907028E0FFEFB1
:101C700020E0F7907038E0FFEF20E0F7907068E028
:101C8000FFEF20E0F7907078E0FFEF20E0F7907032
:101C900010E4F0907020E4F0907030E4F090706008
:101CA000E4F0907070E4F022900018EEF0A3EFF0F2
:101CB00090001EE4F0A3E4F0900020743EF0A374C2
:101CC00080F090001AE4F0A3E4F0900018E0FEA386
:101CD000E0FF90001AE0FCA3E0FDC3ED9FEC9E4006
:101CE00003021D6912232390001CEEF0A3EFF09075
:101CF000001CE0FEA3E0FF90001EE0FCA3E0FDC39B
:101D0000ED9FEE6480F8EC648098501090001CE029
:101D1000FEA3E0FF90001EEEF0A3EFF090001CE0A9
:101D2000FEA3E0FF900020E0FCA3E0FDD3ED9FEEDA
:101D30006480F8EC648098402390001CE0FEA3E0EF
:101D4000FFD3EF9400EE64809480401090001CE07C
:101D5000FEA3E0FF900020EEF0A3EFF090001AE465
:101D600075F0011203C0021CCA900020E0FEA3E03F
:101D7000FF90001EE0FCA3E0FDC3ED9FFFEC9EFE84
:101D80002290001BE4F0A3E4F090001DE4F0A3E433
:101D9000F0900021E4F0A37401F0900019E4F0A3A6
:101DA000E4F0900019E0FEA3E0FFC3EF9440EE647E
:101DB00080949F4003021E4812232390001FEEF0E0
:101DC000A3EFF090001DE0FEA3E0FF90001FE0FCF9
:101DD000A3E0FDC3ED9FFFEC9EFEC3EE6480948004
:101DE0005009900021E4F0A37401F090001DE0FE82
:101DF000A3E0FF90001FE0FCA3E0FDC3ED9FFFEC1C
:101E00009EFED3EF940AEE64809480401E900021E1
:101E1000E0FEA3E0FFEF4E601290001BE475F001BE
:101E20001203C0900021E4F0A3E4F090001FE0FE54
:101E3000A3E0FF90001DEEF0A3EFF0900019E47511
:101E4000F0011203C0021DA290001BE0FEA3E0FF00
:101E500022900013EFF0900013E0FFEF1205F11E47
:101E600081301E89311E91321E99331EA1341EA964
:101E7000351EB1361EB9371EC1381EC93900001FC4
:101E80001D900014740AF080469000147401F080D4
:101E90003E9000147402F080369000147403F080B9
:101EA0002E9000147404F080269000147405F080C5
:101EB0001E9000147406F080169000147407F080D1
:101EC0000E9000147408F080069000147409F090CD
:101ED0000015E4F0900014E0FF900015E0FEC3EF61
:101EE0006480F8EE648098503490500EE0FFEF5418
:101EF000FEFFEFF07F287E007D007C0012240F9013
:101F0000500EE0FFEF4401FFEFF07F3C7E007D00CC
:101F10007C0012240F900015E004F080B72290FF9F
:101F2000FF120617EFF090FFFE1206178508838553
:101F30000982A3A3E0FFEFD3941F5003D38001C312
:101F40004025850883850982A3A3E0FFEFD3941F72
:101F5000500A7F017E007D007C0080087F007E00AB
:101F60007D007C00122A25850883850982A3A3E0D1
:101F7000FFEF541FFF7E00EF7803CEC313CE13D8BC
:101F8000F9FFEF24C0FFEE3444FE85088385098203
:101F9000EEF0A3EFF0850883850982A3A3E0FFEFAD
:101FA0005407FF7401A807088002C333D8FCFF85DB
:101FB0000883850982E0FCA3E0FD8D828C83EFF02D
:101FC000900003120617229043AAE0FFEF4401FF9E
:101FD000EFF09043C5E0FFEF4401FFEFF09043BA0C
:101FE000E0FFEF4401FFEFF09046F5E0FFEF441013
:101FF000FFEFF09046F7E0FFEF4408FFEFF0905856
:1020000091E0FFEF4403FFEFF07F037E001229F819
:102010009046F5E0FFEF54EFFFEFF09046F7E0FF5A
:10202000EF54F7FFEFF0905877E0FFEF4406FFEF33
:10203000F09043A1E0FFEF4401FFEFF09043B1E0E7
:10204000FFEF4401FFEFF0122D0A9043A2E0FFEFF3
:102050004404FFEFF09043B2E0FFEF4404FFEFF0E1
:10206000122CFE22900014EFF0900015ECF0A3ED7E
:10207000F0900014E0FFEFD3941F5003D38001C30E
:102080004020900014E0FFEFD3941F500A7F017EA0
:10209000007D007C0080087F007E007D007C0012B7
:1020A0002A25900014E0FFEF541FFF7E00EF25E08B
:1020B000FFEE33FEEF2400FFEE3444FEAA06A9072C
:1020C0007B01122C74900017EEF0A3EFF090001437
:1020D000E0FF7E02EF8EF0A4FFAEF0EF2400FFEEF3
:1020E0003444FEAA06A9077B01900015E0FEA3E098
:1020F000FFAD07AC06122C83900017E0FEA3E0FFB3
:1021000022900013EFF0900014ECF0A3EDF090009B
:1021100016E4F0A3E4F0900013E0FFEF6401703EDA
:102120007F147E00121CA8900014E0FCA3E0FDD3F5
:10213000EF9DEE9C401F900016E475F0011203C065
:10214000900016E0FEA3E0FFD374A09F740F9E5092
:10215000CF800280CB900016E0FEA3E0FF227F1428
:102160007E00121CA8900014E0FCA3E0FDC3EF9DCC
:10217000EE9C501F900016E475F0011203C0900011
:1021800016E0FEA3E0FFD374A09F740F9E50CF8093
:102190000280CB900016E0FEA3E0FF22900014EF37
:1021A000F0900015EDF0900015E0FFEFD39407508C
:1021B00003D38001C34020900015E0FFEFD39407C4
:1021C000500A7F017E007D007C0080087F007E0039
:1021D0007D007C00122A25900014E0FFEFD3941FAD
:1021E0005003D38001C34020900014E0FFEFD3944C
:1021F0001F500A7F017E007D007C0080087F007EEA
:10220000007D007C00122A25900015E0FFEF5407A6
:10221000FF7E00EF75F020A4FFAEF0900014E0FE0A
:10222000EE541FFE74802EF582E43444F583EFF003
:10223000227F287E007D007C0012240F7F0312275E
:102240008C7F057E007D007C0012240F7F03122707
:102250008C7F0F7E007D007C0012240F7F031227ED
:102260008C7F017E007D007C0012240F7F021227EC
:102270008C7F057E007D007C0012240F7F061228D3
:10228000927F0E1228927F2C1228927F0812289299
:102290007F011228927F0C1228927F031228927FCE
:1022A000057E007D007C0012240F22900013EEF0CA
:1022B000A3EFF0900015ECF0A3EDF0121D8190005B
:1022C00017EEF0A3EFF0900015E0FEA3E0FF900002
:1022D00013E0FCA3E0FDED2FFFEC3EFE900017E0C5
:1022E000FCA3E0FDD3ED9FEE6480F8EC6480985091
:1022F0002F900015E0FEA3E0FF900013E0FCA3E0A8
:10230000FDC3ED9FFFEC9EFE900017E0FCA3E0FDF7
:10231000C3ED9FEE6480F8EC64809840037F012257
:102320007F0022122C9E7F00122655122955900004
:1023300023EEF0A3EFF0900023E0FEA3E0FFEE33E6
:1023400095E0FDFC7B007A8079007800C31205558A
:10235000500A900023E4F0A3E4F08034900023E0DE
:10236000FEA3E0FF7C007D2112038AAC06AD07903E
:102370000023E0FEA3E0FFEF7802C333CE33CED8D4
:10238000F9FFED2FFFEC3EFE900023EEF0A3EFF0FF
:10239000900023E0FEA3E0FF224B002D30393735BB
:1023A000333535393735004400393132333941005E
:1023B000800041008A004100850041008B004400FC
:1023C00086000000004400810000066641009C0079
:1023D00041009B0041009F004100A00044007701A4
:1023E0006E360044007200005DC041007618440063
:1023F0007C2EE0000044008C0000000041009D00A5
:1024000041009EFF430092000000410070000090D8
:10241000FFFC1206171205C77F007E807D007C003E
:102420008508838509821205BBD312056B40309065
:10243000007C1205AF122800850883850982C083BD
:10244000C0821205AFC3EF9400FFEE9480FEED94BE
:1024500000FDEC9400FCD082D0831205C780B990B7
:1024600000721205AF8508838509821205BB12042C
:10247000101228009000041206172290647AE0FFE0
:10248000EF54C0FF900019EFF0900019E0FFEF4407
:1024900009FF90647AEFF090649AE0FFEF4401FF47
:1024A000EFF090649BE0FFEF4401FFEFF07FA07E30
:1024B0000F122B437FA07E0F122B297FD07E071295
:1024C0002B5D90648BE4F0122D3A90001AEFF0909F
:1024D000649BE0FFEF4410FFEFF090001AE0FF1262
:1024E0002D16122C2122906577E0FFEF54C0FF904B
:1024F0000019EFF0900019E0FFEF4409FF906577B5
:10250000EFF0906596E0FFEF4401FFEFF0906597E4
:10251000E0FFEF4401FFEFF07FA07E0F122B917FD1
:10252000A07E0F122B777FD07E07122BAB90658792
:10253000E4F0122D3A90001AEFF0906597E0FFEF6B
:102540004410FFEFF090001AE0FF122D16122C4BF2
:1025500022900018EFF0900019EDF0900018E0FFC5
:10256000EF1205F1257400258101258E02259B03BC
:10257000000025A7900019E0FFEF2480FF122892A9
:1025800022900019E0FFEF24C0FF12289222900051
:1025900019E0FFEF2494FF12289222900019E0FF27
:1025A000EF24D4FF1228922290002AEFF012187321
:1025B000905120E0FFEF4420FFEFF0905120E0FF2A
:1025C000EF54BFFFEFF0905120E0FFEF54F0FFEF2A
:1025D000F0905120C083C082E0FF90002AE0FEEE20
:1025E0004410FEEF4EFFD082D083EFF07F017E00DB
:1025F0001229F8905120E0FFEF54EFFFEFF0224650
:102600003D00204F4B20002042414400563D002019
:1026100020202020202020202020202020202000DA
:10262000202020202020202020004461696C204FA1
:102630004B004469616C204572726F72002020204B
:10264000202020202020202020004469616C20547C
:102650007279202300900025EFF090008AE0FFEFD0
:10266000B4011E900080E0FF900026EFF09000265D
:10267000E0FFEF6401602A900025E0FFEF60E48056
:1026800020904E01E0FFEF5401FF900026EFF09004
:102690000026E0FFEF64016008900025E0FFEF6096
:1026A000E0900026E0FF229000231205E89000262B
:1026B0007401F09000231205DF1202F8FF9000274A
:1026C000EFF0900027E0FFEF602A900027E0FF1274
:1026D000298E9000231205DF900026E0FFE92FF9F4
:1026E000E43AFA1202F8FF900027EFF0900026E09B
:1026F00004F080CE22900090747FF090009174805E
:10270000F0900000747FF0900000E0FFEF602190F7
:102710000000E0FFEF14FF900000E0FE75F008EE0F
:102720009078001205D3EFF0900000E014F080D70D
:10273000900000E0FF75F008EF9078001205D3E4F8
:10274000F022900016EFF0900016E0FFEFC3940225
:102750005039900016E0FFEF25E0245EF582E43466
:102760002FF583E493FE740193FF8F828E83C083E1
:10277000C082E0FF900016E0FEEE902F6293FEEE26
:10278000F4FEEF5EFFD082D083EFF02290001CEFCA
:10279000F0905120E0FFEF549FFFEFF0905120E0C8
:1027A000FFEF54F0FFEFF0905120C083C082E0FFB4
:1027B00090001CE0FEEE4410FEEF4EFFD082D0836E
:1027C000EFF07F017E001229F8905120E0FFEF54D6
:1027D000EFFFEFF022900013EEF0A3EFF07D007F0B
:1027E000011225517BFF7A2579FF1226A79000134D
:1027F000E0FEA3E0FF121ACA7D057F0112255122D7
:10280000EC4D4E700D78FCEF24E950032840FD227A
:10281000000078C5904800E0C403035403902847A3
:102820009325E0240FF404FBEF28FF78FFEE38FE39
:10283000ED38FDEC38FC50D7EF2BFFEE38FEED38CD
:10284000FDEC38FC40F22206030405900015EFF081
:10285000900015E0FFEFC394025036900015E0FFA2
:10286000EF25E0245EF582E4342FF583E493FE74D3
:102870000193FF8F828E83C083C082E0FF9000159A
:10288000E0FEEE902F6293FEEF4EFFD082D083EFFA
:10289000F02290001AEFF090001AE0FFEFC4540FFE
:1028A000FF90001BEFF012187390001BE0FFEF5435
:1028B0000FFF90001BEFF090001BE0FF12278C90A1
:1028C000001AE0FFEF540FFF90001BEFF090001B89
:1028D000E0FF12278C22C2D5E830E70FB2D5E4C35F
:1028E0009BFBE49AFAE499F9E498F8EC30E717B224
:1028F000D512290C12049BE4C39BFBE49AFAE499D9
:10290000F9E498F8800312049B30D50DE4C39FFFCF
:10291000E49EFEE49DFDE49CFC22900013EFF09009
:102920000014EDF0900015EBF0900013E0FF120F93
:10293000DB900014E0FF900015E0FD12255190009F
:1029400013E0FF122C90900016E0FEA3E0FFE4FCE1
:10295000FD12240F22904E11E0FF7E00900025EE24
:10296000F0A3EFF0900025E0FEA3E0FFEF7F00FE74
:10297000904E10E0FD7C00EE4CFEEF4DFF900025E8
:10298000EEF0A3EFF0900025E0FEA3E0FF22900020
:1029900028EFF0121873900028E0FFEFC4540FFFE7
:1029A000900029EFF0900029E0FF1225A890002860
:1029B000E0FFEF540FFF900029EFF0900029E0FFB7
:1029C0001225A822758600EF4E6027EF60010E7574
:1029D000930090000CE0F595A3E0F585A3E0F58465
:1029E0008B938A838982E0A30586F0A31586DFF6A0
:1029F000DEF4E4F593F59522EEFA900076E0F88F98
:102A0000F0A4FFAEF0E88AF0A42EFEE5F03400FD5D
:102A1000EF24C9FF78FFEE38FEED38FDE438FC50B6
:102A2000030228002290FFFF120617EFF0850883AB
:102A3000850982E0FF850883850982EFF09046EAE8
:102A40007401F0900001120617227F011208477FDF
:102A500010122AAF7F10122A8E900018740DF07B8E
:102A60000B7A747D007C907F0212130B229000136E
:102A7000EFF0900013E0FFEF600A7BFF7A26790207
:102A80001226A7227BFF7A2679071226A72290001A
:102A900013EFF090408AC083C082E0FF900013E003
:102AA000FEEE54F8FEEF4EFFD082D083EFF022907E
:102AB0000013EFF0904102C083C082E0FF9000134A
:102AC000E0FEEE54F8FEEF4EFFD082D083EFF0220E
:102AD000900015E4F0900015E0FFEFC39402501051
:102AE000900015E0FF122742900015E004F080E509
:102AF00022900085E0FFEF701190008BE0FFEF70F7
:102B000003122A4A9000857401F0121FC722900018
:102B100014EFF0122AD0900014E0FF12284B90001E
:102B200014E0FF90009EEFF02290001BEEF0A3EF68
:102B3000F07B027A64790A90001BE0FCA3E0FD12AE
:102B40002C832290001BEEF0A3EFF07B027A6479D5
:102B50004A90001BE0FCA3E0FD122C832290001B96
:102B6000EEF0A3EFF07B027A64792A90001BE0FC80
:102B7000A3E0FD122C832290001BEEF0A3EFF07B6C
:102B8000027A65790690001BE0FCA3E0FD122C831D
:102B90002290001BEEF0A3EFF07B027A657946905D
:102BA000001BE0FCA3E0FD122C832290001BEEF042
:102BB000A3EFF07B027A65792690001BE0FCA3E08E
:102BC000FD122C8322EC4D6011ED60010C8B938A79
:102BD000838982E4F0A3DDFCDCFA75930022905136
:102BE0004D7410F09051CD74AAF0905B007410F009
:102BF0009058767444F02290009BE0FFEF70091229
:102C0000223190009B7401F0122CAA2290009FE0C8
:102C1000FFEF700912247B90009F7401F0122CB614
:102C20002290646BE0FFEF30E40B7B027A64795A08
:102C3000122C7480EC229000A0E0FFEF70091224A7
:102C4000E69000A07401F0122CCE22906567E0FFA0
:102C5000EF30E40B7B027A657956122C7480EC22FB
:102C60008B938A838982EFF0A3EEF0A3EDF0759346
:102C700000228B938A838982E0FFA3E0FE75930094
:102C8000228B938A838982EDF0A3ECF07593002266
:102C9000900018EFF0900018E0FF12298E22904E5D
:102CA00000E0FFEF4401FFEFF0227F0C122892902A
:102CB000009C7401F02290647AE0FFEF4480FFEF03
:102CC000F02290647AE0FFEF547FFFEFF0229065EE
:102CD00077E0FFEF4480FFEFF022906577E0FFEFB1
:102CE000547FFFEFF0229043A2E0FFEF4402FFEF9A
:102CF000F0229043A2E0FFEF4401FFEFF022904367
:102D0000A2E0FFEF4404FFEFF0229043A1E0FFEFC9
:102D10004401FFEFF022EF54016004D2AF8002C201
:102D2000AF228B938A838982E0759300FF228B9375
:102D30008A838982EDF0759300227F0010AF012213
:102D400074014FFF223232323201000000000000D5
:102D50000001000000000001000100000008000068
:102D6000000100000008000100010000000100084F
:102D700023022D497608000823032D517610000800
:102D800023042D597628000823052D61763000058F
:102D900023062D697020000523072D69703000057A
:102DA00023082D697060000523FF2D6970700010E5
:102DB000220A009751300020220B0097515000103A
:102DC000220C009751C0001022FF009751F00380A1
:102DD000220E009700000080220F009704800180DF
:102DE0002210009706000180221100970800018040
:102DF000221200970C000200221300970E0001809F
:102E00002214009714000180221500971800020078
:102E1000221600971A000100221700974000018037
:102E20002218009742000080221900974500008078
:102E3000221A009746000080221B009747000100DD
:102E4000221C00974800008022FF00974C000020C1
:102E5000231E02806470002023FF02A065700080A2
:102E60002320000004000080232100800A0000804D
:102E7000232201000A8000802323018016000080A5
:102E80002324020016800080232502C04D0000800C
:102E9000232603404D800080232703C04C80008000
:102EA0002328044047800080232904C046800080F6
:102EB000232A054045800080232B05C04400008064
:102EC000232C064044800080232D06C015800080FE
:102ED000232E074019800080232F07C01700008091
:102EE0002330084017800080233108C0098000800B
:102EF0002332094007800080233309C00B00008083
:102F000023340A400B80008023350AC0050000806E
:102F100023360B400580008023370BC00D800080D6
:102F200023380C400380008023390CC04900008006
:102F3000233A0D4049800080233B0DC04380008030
:102F4000233C0E4041000080233D0EC04180001014
:102F5000233E0F405010001023FF0F5050005B0322
:042F60005B0340408F
:00000001FF
